S01200004C45445F4472697665722E7372656372
S11300000C942A000C9447000C9447000C9447006D
S11300100C9447000C9447000C9447000C94470040
S11300200C9447000C9447000C9447000C94470030
S11300300C9447000C9447000C9447000C94470020
S11300400C9447000C9447000C9447000C94470010
S11300500C94470011241FBECFE5D8E0DEBFCDBF0E
S113006010E0A0E6B0E0E0E1F8E002C005900D92F7
S1130070A036B107D9F710E0A0E6B0E001C01D92A8
S1130080A036B107E1F70E9490020C9406040C9488
S1130090000020E030E04AE754E40E94BE0220E081
S11300A034E244E759E40E94A30320E030E040E056
S11300B05FE30E94A3030E942603462F572F682F55
S11300C0792F411551056105710559F080E090E0E3
S11300D0DC010196A11DB11D84179507A607B7077A
S11300E0C1F7089520E034E244E759E40E94BE02D7
S11300F020E034E244E759E40E94A30320E030E026
S113010040E05FE30E94A3030E942603462F572F7B
S1130110682F792F411551056105710559F080E06B
S113012090E0DC010196A11DB11D84179507A60777
S1130130B707C1F70895813049F1813038F0823032
S113014009F444C0833009F07EC05FC0442371F4D5
S11301502AB381E090E0AC0102C0440F551F6A95B8
S1130160E2F7BA01609562236ABB0895413009F051
S11301706AC02AB381E090E0AC0102C0440F551F6D
S11301806A95E2F7BA01622B6ABB0895442371F4BD
S113019027B381E090E0AC0102C0440F551F6A957B
S11301A0E2F7BA016095622367BB0895413009F014
S11301B04AC027B381E090E0AC0102C0440F551F50
S11301C06A95E2F7BA01622B67BB0895442371F480
S11301D024B381E090E0AC0102C0440F551F6A953E
S11301E0E2F7BA016095622364BB0895413059F582
S11301F024B381E090E0AC0102C0440F551F6A951E
S1130200E2F7BA01622B64BB0895442371F421B36D
S113021081E090E0AC0102C0440F551F6A95E2F7FB
S1130220BA016095622361BB0895413061F421B342
S113023081E090E0AC0102C0440F551F6A95E2F7DB
S1130240BA01622B61BB0895813081F0813028F0BE
S11302508230A9F0833021F51BC0662311F41ABA49
S113026008956130E9F48FEF8ABB0895662311F491
S113027017BA08956130A1F48FEF87BB0895662300
S113028011F414BA0895613059F48FEF84BB0895C2
S1130290662311F411BA0895613011F48FEF81BB14
S11302A00895813049F1813038F0823009F444C036
S11302B0833009F07EC05FC0442371F42BB381E026
S11302C090E0AC0102C0440F551F6A95E2F7BA01F1
S11302D0609562236BBB0895413009F06AC02BB36B
S11302E081E090E0AC0102C0440F551F6A95E2F72B
S11302F0BA01622B6BBB0895442371F428B381E0E7
S113030090E0AC0102C0440F551F6A95E2F7BA01B0
S11303106095622368BB0895413009F04AC028B350
S113032081E090E0AC0102C0440F551F6A95E2F7EA
S1130330BA01622B68BB0895442371F425B381E0AC
S113034090E0AC0102C0440F551F6A95E2F7BA0170
S11303506095622365BB0895413059F525B381E06A
S113036090E0AC0102C0440F551F6A95E2F7BA0150
S1130370622B65BB0895442371F422B381E090E0BD
S1130380AC0102C0440F551F6A95E2F7BA016095AB
S1130390622362BB0895413061F422B381E090E0AE
S11303A0AC0102C0440F551F6A95E2F7BA01622BF3
S11303B062BB0895813089F0813028F08230B9F031
S11303C0833049F51EC029B330E0C90102C09595B8
S11303D087956A95E2F78170089526B330E0C901E4
S11303E002C0959587956A95E2F78170089523B3C5
S11303F030E0C90102C0959587956A95E2F781704E
S1130400089520B330E0C90102C0959587956A9597
S1130410E2F78170089580E00895813081F08130A1
S113042028F08230A9F0833021F51BC0613019F423
S11304308FEF8BBB08956623E1F41BBA08956130F6
S113044019F48FEF88BB0895662399F418BA0895B8
S1130450613019F48FEF85BB0895662351F415BA02
S11304600895613019F48FEF82BB0895662309F46F
S113047012BA08958130A1F0813028F08230E9F079
S11304808330A1F527C02BB381E090E0AC0102C01A
S1130490440F551F6A95E2F7BA0162276BBB0895B2
S11304A028B381E090E0AC0102C0440F551F6A9567
S11304B0E2F7BA01622768BB089525B381E090E0B2
S11304C0AC0102C0440F551F6A95E2F7BA016227D6
S11304D065BB089522B381E090E0AC0102C0440FF3
S11304E0551F6A95E2F7BA01622762BB089581300D
S11304F059F0813028F0823059F0833081F40CC0F7
S11305008BB380958BBB089588B3809588BB089581
S113051085B3809585BB089582B3809582BB089589
S113052083E063E00E94A90283E063E00E94AD02DD
S113053060E070E48CE196E40E94490083E063E0AB
S11305400E94B10260E070E48CE196E40E944900EC
S1130550EBCF41E00E949B00089541E00E945101CD
S1130560089540E00E945101089590E002C09595DD
S113057087956A95E2F78170089508950CD0A9C013
S1130580A1D040F098D030F021F45F3F19F08AC038
S11305905111D3C08DC0AED098F39923C9F355231C
S11305A0B1F3951B550BBB27AA2762177307840762
S11305B038F09F5F5F4F220F331F441FAA1FA9F318
S11305C033D00E2E3AF0E0E830D091505040E6950A
S11305D0001CCAF729D0FE2F27D0660F771F881F6B
S11305E0BB1F261737074807AB07B0E809F0BB0B5A
S11305F0802DBF01FF2793585F4F2AF09E3F51057E
S113060068F050C09AC05F3FECF3983EDCF38695E7
S113061077956795B795F7959F5FC9F7880F911DF3
S11306209695879597F90895E1E0660F771F881FDF
S1130630BB1F621773078407BA0720F0621B730B92
S1130640840BBA0BEE1F88F7E09508955BD088F011
S11306509F5790F0B92F9927B751A0F0D1F0660FAA
S1130660771F881F991F1AF0BA95C9F712C0B130C5
S113067081F062D0B1E008955FC0672F782F88279A
S1130680B85F39F0B93FCCF3869577956795B39504
S1130690D9F73EF490958095709561957F4F8F4F73
S11306A09F4F089597F99F6780E870E060E0089590
S11306B09FEF80EC089500240A9416161706180676
S11306C00906089500240A94121613061406050652
S11306D00895092E0394000C11F4882352F0BB0FE3
S11306E040F4BF2B11F460FF04C06F5F7F4F8F4F46
S11306F09F4F089557FD9058440F551F59F05F3F81
S113070071F04795880F97FB991F61F09F3F79F02F
S113071087950895121613061406551FF2CF4695B1
S1130720F1DF08C0161617061806991FF1CF869533
S11307307105610508940895E894BB276627772717
S1130740CB0197F908950BD0C4CFB5DF28F0BADFF9
S113075018F0952309F0A6CFABCF1124EECFCADF52
S1130760A0F3959FD1F3950F50E0551F629FF001C0
S1130770729FBB27F00DB11D639FAA27F00DB11D19
S1130780AA1F649F6627B00DA11D661F829F2227A2
S1130790B00DA11D621F739FB00DA11D621F839F29
S11307A0A00D611D221F749F3327A00D611D231FFF
S11307B0849F600D211D822F762F6A2F11249F574D
S11307C050408AF0E1F088234AF0EE0FFF1FBB1F70
S11307D0661F771F881F91505040A9F79E3F51050F
S11307E070F060CFAACF5F3FECF3983EDCF38695C0
S11307F077956795B795F795E7959F5FC1F7FE2BBA
S1130800880F911D9695879597F90895F894FFCFD1
S9030000FC
