S0150000454550524F4D5F4472697665722E737265637C
S11300000C942A000C9447000C9447000C9447006D
S11300100C9447000C9447000C9447000C94470040
S11300200C9447000C9447000C9447000C94470030
S11300300C9447000C9447000C9447000C94470020
S11300400C9447000C9447000C9447000C94470010
S11300500C94470011241FBECFE5D8E0DEBFCDBF0E
S113006010E0A0E6B0E0ECE0F6E002C005900D92EE
S1130070A036B107D9F710E0A0E6B0E001C01D92A8
S1130080A036B107E1F70E94ED020C9404030C942E
S11300900000813049F1813038F0823009F444C0E5
S11300A0833009F07EC05FC0442371F42AB381E039
S11300B090E0AC0102C0440F551F6A95E2F7BA0103
S11300C0609562236ABB0895413009F06AC02AB37F
S11300D081E090E0AC0102C0440F551F6A95E2F73D
S11300E0BA01622B6ABB0895442371F427B381E0FB
S11300F090E0AC0102C0440F551F6A95E2F7BA01C3
S11301006095622367BB0895413009F04AC027B364
S113011081E090E0AC0102C0440F551F6A95E2F7FC
S1130120BA01622B67BB0895442371F424B381E0C0
S113013090E0AC0102C0440F551F6A95E2F7BA0182
S11301406095622364BB0895413059F524B381E07E
S113015090E0AC0102C0440F551F6A95E2F7BA0162
S1130160622B64BB0895442371F421B381E090E0D1
S1130170AC0102C0440F551F6A95E2F7BA016095BD
S1130180622361BB0895413061F421B381E090E0C2
S1130190AC0102C0440F551F6A95E2F7BA01622B05
S11301A061BB0895813081F0813028F08230A9F05C
S11301B0833021F51BC0662311F41ABA0895613007
S11301C0E9F48FEF8ABB0895662311F417BA0895F2
S11301D06130A1F48FEF87BB0895662311F414BA3C
S11301E00895613059F48FEF84BB0895662311F4A8
S11301F011BA0895613011F48FEF81BB08958130F5
S113020049F1813038F0823009F444C0833009F078
S11302107EC05FC0442371F42BB381E090E0AC0155
S113022002C0440F551F6A95E2F7BA016095622334
S11302306BBB0895413009F06AC02BB381E090E0B4
S1130240AC0102C0440F551F6A95E2F7BA01622B54
S11302506BBB0895442371F428B381E090E0AC01B2
S113026002C0440F551F6A95E2F7BA0160956223F4
S113027068BB0895413009F04AC028B381E090E09A
S1130280AC0102C0440F551F6A95E2F7BA01622B14
S113029068BB0895442371F425B381E090E0AC0178
S11302A002C0440F551F6A95E2F7BA0160956223B4
S11302B065BB0895413059F525B381E090E0AC0168
S11302C002C0440F551F6A95E2F7BA01622B65BB61
S11302D00895442371F422B381E090E0AC0102C09C
S11302E0440F551F6A95E2F7BA016095622362BB19
S11302F00895413061F422B381E090E0AC0102C082
S1130300440F551F6A95E2F7BA01622B62BB089548
S1130310813089F0813028F08230B9F0833049F59A
S11303201EC029B330E0C90102C0959587956A952E
S1130330E2F78170089526B330E0C90102C09595B3
S113034087956A95E2F78170089523B330E0C90177
S113035002C0959587956A95E2F78170089520B358
S113036030E0C90102C0959587956A95E2F78170DE
S1130370089580E00895813049F0813028F082307A
S113038039F0833041F406C06BBB089568BB08950F
S113039065BB089562BB08958130A1F0813028F0D7
S11303A08230E9F08330A1F527C02BB381E090E0DF
S11303B0AC0102C0440F551F6A95E2F7BA016227E7
S11303C06BBB089528B381E090E0AC0102C0440FF8
S11303D0551F6A95E2F7BA01622768BB089525B3F1
S11303E081E090E0AC0102C0440F551F6A95E2F72A
S11303F0BA01622765BB089522B381E090E0AC01A5
S113040002C0440F551F6A95E2F7BA01622762BB26
S11304100895813059F0813028F0823059F08330CA
S113042081F40CC08BB380958BBB089588B3809501
S113043088BB089585B3809585BB089582B3809564
S113044082BB08958130A1F0813028F08230E9F038
S11304508330A1F527C02BB381E090E0AC0102C04A
S1130460440F551F6A95E2F7BA01622B6BBB0895DE
S113047028B381E090E0AC0102C0440F551F6A9597
S1130480E2F7BA01622B68BB089525B381E090E0DE
S1130490AC0102C0440F551F6A95E2F7BA01622B02
S11304A065BB089522B381E090E0AC0102C0440F23
S11304B0551F6A95E2F7BA01622B62BB0895813039
S11304C0A9F0813028F08230F9F08330C1F52AC0D8
S11304D02BB381E090E0AC0102C0440F551F6A9534
S11304E0E2F7BA01609562236BBB089528B381E0FB
S11304F090E0AC0102C0440F551F6A95E2F7BA01BF
S11305006095622368BB089525B381E090E0AC0157
S113051002C0440F551F6A95E2F7BA016095622341
S113052065BB089522B381E090E0AC0102C0440FA2
S1130530551F6A95E2F7BA016095622362BB08957C
S11305406F70813071F0813028F0823089F083300F
S1130550E1F415C08BB3807F8BBB8BB3682B6BBB73
S1130560089588B3807F88BB88B3682B68BB0895DF
S113057085B3807F85BB85B3682B65BB089582B343
S1130580807F82BB82B3682B62BB08956295607FD3
S1130590813071F0813028F0823089F08330E1F4C9
S11305A015C08BB38F708BBB8BB3682B6BBB08955B
S11305B088B38F7088BB88B3682B68BB089585B3F4
S11305C08F7085BB85B3682B65BB089582B38F702C
S11305D082BB82B3682B62BB089583E690E062E538
S11305E00E94F302FFCF2CB321FDFDCF8EBB9FBB36
S11305F06DBBE29AE19A08952CB321FDFDCF8EBB29
S10F06009FBBE09A8DB30895F894FFCFDF
S9030000FC
